{
  "contractName": "Lottery",
  "abi": [
    {
      "inputs": [],
      "stateMutability": "nonpayable",
      "type": "constructor"
    },
    {
      "inputs": [],
      "name": "manager",
      "outputs": [
        {
          "internalType": "address",
          "name": "",
          "type": "address"
        }
      ],
      "stateMutability": "view",
      "type": "function",
      "constant": true
    },
    {
      "inputs": [
        {
          "internalType": "uint256",
          "name": "",
          "type": "uint256"
        }
      ],
      "name": "players",
      "outputs": [
        {
          "internalType": "address payable",
          "name": "",
          "type": "address"
        }
      ],
      "stateMutability": "view",
      "type": "function",
      "constant": true
    },
    {
      "stateMutability": "payable",
      "type": "receive",
      "payable": true
    },
    {
      "inputs": [],
      "name": "getBalance",
      "outputs": [
        {
          "internalType": "uint256",
          "name": "",
          "type": "uint256"
        }
      ],
      "stateMutability": "view",
      "type": "function",
      "constant": true
    },
    {
      "inputs": [],
      "name": "pickWinner",
      "outputs": [],
      "stateMutability": "nonpayable",
      "type": "function"
    }
  ],
  "bytecode": "0x608060405234801561001057600080fd5b5033600160006101000a81548173ffffffffffffffffffffffffffffffffffffffff021916908373ffffffffffffffffffffffffffffffffffffffff1602179055506106bd806100616000396000f3fe6080604052600436106100435760003560e01c806312065fe0146100c6578063481c6a75146100f15780635d495aea1461011c578063f71d96cb14610133576100c1565b366100c15767016345785d8a0000341461005c57600080fd5b6000339080600181540180825580915050600190039060005260206000200160009091909190916101000a81548173ffffffffffffffffffffffffffffffffffffffff021916908373ffffffffffffffffffffffffffffffffffffffff160217905550005b600080fd5b3480156100d257600080fd5b506100db610170565b6040516100e8919061045a565b60405180910390f35b3480156100fd57600080fd5b50610106610178565b60405161011391906104b6565b60405180910390f35b34801561012857600080fd5b5061013161019e565b005b34801561013f57600080fd5b5061015a60048036038101906101559190610502565b610321565b6040516101679190610550565b60405180910390f35b600047905090565b600160009054906101000a900473ffffffffffffffffffffffffffffffffffffffff1681565b600160009054906101000a900473ffffffffffffffffffffffffffffffffffffffff1673ffffffffffffffffffffffffffffffffffffffff163373ffffffffffffffffffffffffffffffffffffffff16146101f857600080fd5b6003600080549050101561020b57600080fd5b6000610215610360565b90506000806000805490508361022b919061059a565b905060008181548110610241576102406105cb565b5b9060005260206000200160009054906101000a900473ffffffffffffffffffffffffffffffffffffffff1691508173ffffffffffffffffffffffffffffffffffffffff166108fc610290610170565b9081150290604051600060405180830381858888f193505050501580156102bb573d6000803e3d6000fd5b50600067ffffffffffffffff8111156102d7576102d66105fa565b5b6040519080825280602002602001820160405280156103055781602001602082028036833780820191505090505b506000908051906020019061031b92919061039a565b50505050565b6000818154811061033157600080fd5b906000526020600020016000915054906101000a900473ffffffffffffffffffffffffffffffffffffffff1681565b6000444260008054905060405160200161037c9392919061064a565b6040516020818303038152906040528051906020012060001c905090565b828054828255906000526020600020908101928215610413579160200282015b828111156104125782518260006101000a81548173ffffffffffffffffffffffffffffffffffffffff021916908373ffffffffffffffffffffffffffffffffffffffff160217905550916020019190600101906103ba565b5b5090506104209190610424565b5090565b5b8082111561043d576000816000905550600101610425565b5090565b6000819050919050565b61045481610441565b82525050565b600060208201905061046f600083018461044b565b92915050565b600073ffffffffffffffffffffffffffffffffffffffff82169050919050565b60006104a082610475565b9050919050565b6104b081610495565b82525050565b60006020820190506104cb60008301846104a7565b92915050565b600080fd5b6104df81610441565b81146104ea57600080fd5b50565b6000813590506104fc816104d6565b92915050565b600060208284031215610518576105176104d1565b5b6000610526848285016104ed565b91505092915050565b600061053a82610475565b9050919050565b61054a8161052f565b82525050565b60006020820190506105656000830184610541565b92915050565b7f4e487b7100000000000000000000000000000000000000000000000000000000600052601260045260246000fd5b60006105a582610441565b91506105b083610441565b9250826105c0576105bf61056b565b5b828206905092915050565b7f4e487b7100000000000000000000000000000000000000000000000000000000600052603260045260246000fd5b7f4e487b7100000000000000000000000000000000000000000000000000000000600052604160045260246000fd5b6000819050919050565b61064461063f82610441565b610629565b82525050565b60006106568286610633565b6020820191506106668285610633565b6020820191506106768284610633565b60208201915081905094935050505056fea264697066735822122054062c185db28f324c3bb4d34cad7bf3b1ac5e23080688fb9bb354903959535764736f6c634300080a0033",
  "immutableReferences": {},
  "source": "//SPDX-License-Identifier: GPL-3.0\n \npragma solidity >=0.5.0 <0.9.0;\n \ncontract Lottery{\n    \n    // declaring the state variables\n    address payable[] public players; //dynamic array of type address payable\n    address public manager; \n    \n    \n    // declaring the constructor\n    constructor(){\n        // initializing the owner to the address that deploys the contract\n        manager = msg.sender; \n    }\n    \n    // declaring the receive() function that is necessary to receive ETH\n    receive () payable external{\n        // each player sends exactly 0.1 ETH \n        require(msg.value == 0.1 ether);\n        // appending the player to the players array\n        players.push(payable(msg.sender));\n    }\n    \n    // returning the contract's balance in wei\n    function getBalance() public view returns(uint){\n        // only the manager is allowed to call it\n        // require(msg.sender == manager);\n        return address(this).balance;\n    }\n    \n    // helper function that returns a big random integer\n    function random() internal view returns(uint){\n       return uint(keccak256(abi.encodePacked(block.difficulty, block.timestamp, players.length)));\n    }\n    \n    \n    // selecting the winner\n    function pickWinner() public{\n        // only the manager can pick a winner if there are at least 3 players in the lottery\n        require(msg.sender == manager);\n        require (players.length >= 3);\n        \n        uint r = random();\n        address payable winner;\n        \n        // computing a random index of the array\n        uint index = r % players.length;\n    \n        winner = players[index]; // this is the winner\n        \n        // transferring the entire contract's balance to the winner\n        winner.transfer(getBalance());\n        \n        // resetting the lottery for the next round\n        players = new address payable[](0);\n    }\n \n}\n",
  "sourcePath": "/Users/glenmaytum/Desktop/Practice/Projects/lottery-dapp/contracts/Lottery.sol",
  "compiler": {
    "name": "solc",
    "version": "0.8.10+commit.fc410830.Emscripten.clang"
  },
  "schemaVersion": "3.4.4",
  "updatedAt": "2022-01-18T15:52:50.305Z",
  "networkType": "ethereum",
  "devdoc": {
    "kind": "dev",
    "methods": {},
    "version": 1
  },
  "userdoc": {
    "kind": "user",
    "methods": {},
    "version": 1
  }
}